{
  "contractName": "Wallet",
  "abi": [
    {
      "anonymous": false,
      "inputs": [
        {
          "indexed": true,
          "internalType": "address",
          "name": "previousOwner",
          "type": "address"
        },
        {
          "indexed": true,
          "internalType": "address",
          "name": "newOwner",
          "type": "address"
        }
      ],
      "name": "OwnershipTransferred",
      "type": "event"
    },
    {
      "inputs": [
        {
          "internalType": "address",
          "name": "",
          "type": "address"
        },
        {
          "internalType": "bytes32",
          "name": "",
          "type": "bytes32"
        }
      ],
      "name": "balances",
      "outputs": [
        {
          "internalType": "uint256",
          "name": "",
          "type": "uint256"
        }
      ],
      "stateMutability": "view",
      "type": "function",
      "constant": true
    },
    {
      "inputs": [],
      "name": "owner",
      "outputs": [
        {
          "internalType": "address",
          "name": "",
          "type": "address"
        }
      ],
      "stateMutability": "view",
      "type": "function",
      "constant": true
    },
    {
      "inputs": [],
      "name": "renounceOwnership",
      "outputs": [],
      "stateMutability": "nonpayable",
      "type": "function"
    },
    {
      "inputs": [
        {
          "internalType": "uint256",
          "name": "",
          "type": "uint256"
        }
      ],
      "name": "tokenList",
      "outputs": [
        {
          "internalType": "bytes32",
          "name": "",
          "type": "bytes32"
        }
      ],
      "stateMutability": "view",
      "type": "function",
      "constant": true
    },
    {
      "inputs": [
        {
          "internalType": "bytes32",
          "name": "",
          "type": "bytes32"
        }
      ],
      "name": "tokenMapping",
      "outputs": [
        {
          "internalType": "bytes32",
          "name": "ticker",
          "type": "bytes32"
        },
        {
          "internalType": "address",
          "name": "tokenAddress",
          "type": "address"
        }
      ],
      "stateMutability": "view",
      "type": "function",
      "constant": true
    },
    {
      "inputs": [
        {
          "internalType": "address",
          "name": "newOwner",
          "type": "address"
        }
      ],
      "name": "transferOwnership",
      "outputs": [],
      "stateMutability": "nonpayable",
      "type": "function"
    },
    {
      "inputs": [
        {
          "internalType": "bytes32",
          "name": "_ticker",
          "type": "bytes32"
        },
        {
          "internalType": "address",
          "name": "_tokenAddress",
          "type": "address"
        }
      ],
      "name": "addToken",
      "outputs": [],
      "stateMutability": "nonpayable",
      "type": "function"
    },
    {
      "inputs": [
        {
          "internalType": "bytes32",
          "name": "_ticker",
          "type": "bytes32"
        },
        {
          "internalType": "uint256",
          "name": "_amount",
          "type": "uint256"
        }
      ],
      "name": "deposit",
      "outputs": [],
      "stateMutability": "nonpayable",
      "type": "function"
    },
    {
      "inputs": [
        {
          "internalType": "bytes32",
          "name": "_ticker",
          "type": "bytes32"
        },
        {
          "internalType": "uint256",
          "name": "_amount",
          "type": "uint256"
        }
      ],
      "name": "withdraw",
      "outputs": [],
      "stateMutability": "nonpayable",
      "type": "function"
    }
  ],
  "bytecode": "0x608060405234801561001057600080fd5b5061002d61002261003260201b60201c565b61003a60201b60201c565b6100fe565b600033905090565b60008060009054906101000a900473ffffffffffffffffffffffffffffffffffffffff169050816000806101000a81548173ffffffffffffffffffffffffffffffffffffffff021916908373ffffffffffffffffffffffffffffffffffffffff1602179055508173ffffffffffffffffffffffffffffffffffffffff168173ffffffffffffffffffffffffffffffffffffffff167f8be0079c531659141344cd1fd0a4f28419497f9722a3daafe3b4186f6b6457e060405160405180910390a35050565b6111478061010d6000396000f3fe608060405234801561001057600080fd5b50600436106100935760003560e01c8063715018a611610066578063715018a6146101315780638da5cb5b1461013b5780639776aacf146101595780639ead722214610175578063f2fde38b146101a557610093565b8063040cf020146100985780631de26e16146100b45780631f14df69146100d0578063667cb4ba14610100575b600080fd5b6100b260048036038101906100ad9190610b60565b6101c1565b005b6100ce60048036038101906100c99190610b60565b61046c565b005b6100ea60048036038101906100e59190610bfe565b610686565b6040516100f79190610c4d565b60405180910390f35b61011a60048036038101906101159190610c68565b6106ab565b604051610128929190610cb3565b60405180910390f35b6101396106ef565b005b610143610777565b6040516101509190610cdc565b60405180910390f35b610173600480360381019061016e9190610cf7565b6107a0565b005b61018f600480360381019061018a9190610d37565b6108db565b60405161019c9190610d64565b60405180910390f35b6101bf60048036038101906101ba9190610d7f565b6108ff565b005b81600073ffffffffffffffffffffffffffffffffffffffff166001600083815260200190815260200160002060010160009054906101000a900473ffffffffffffffffffffffffffffffffffffffff1673ffffffffffffffffffffffffffffffffffffffff161415610268576040517f08c379a000000000000000000000000000000000000000000000000000000000815260040161025f90610e09565b60405180910390fd5b81600360003373ffffffffffffffffffffffffffffffffffffffff1673ffffffffffffffffffffffffffffffffffffffff16815260200190815260200160002060008581526020019081526020016000205410156102fb576040517f08c379a00000000000000000000000000000000000000000000000000000000081526004016102f290610e75565b60405180910390fd5b61035e82600360003373ffffffffffffffffffffffffffffffffffffffff1673ffffffffffffffffffffffffffffffffffffffff1681526020019081526020016000206000868152602001908152602001600020546109f790919063ffffffff16565b600360003373ffffffffffffffffffffffffffffffffffffffff1673ffffffffffffffffffffffffffffffffffffffff1681526020019081526020016000206000858152602001908152602001600020819055506001600084815260200190815260200160002060010160009054906101000a900473ffffffffffffffffffffffffffffffffffffffff1673ffffffffffffffffffffffffffffffffffffffff1663a9059cbb33846040518363ffffffff1660e01b8152600401610423929190610e95565b6020604051808303816000875af1158015610442573d6000803e3d6000fd5b505050506040513d601f19601f820116820180604052508101906104669190610ef6565b50505050565b81600073ffffffffffffffffffffffffffffffffffffffff166001600083815260200190815260200160002060010160009054906101000a900473ffffffffffffffffffffffffffffffffffffffff1673ffffffffffffffffffffffffffffffffffffffff161415610513576040517f08c379a000000000000000000000000000000000000000000000000000000000815260040161050a90610e09565b60405180910390fd5b61057682600360003373ffffffffffffffffffffffffffffffffffffffff1673ffffffffffffffffffffffffffffffffffffffff168152602001908152602001600020600086815260200190815260200160002054610a0d90919063ffffffff16565b600360003373ffffffffffffffffffffffffffffffffffffffff1673ffffffffffffffffffffffffffffffffffffffff1681526020019081526020016000206000858152602001908152602001600020819055506001600084815260200190815260200160002060010160009054906101000a900473ffffffffffffffffffffffffffffffffffffffff1673ffffffffffffffffffffffffffffffffffffffff166323b872dd3330856040518463ffffffff1660e01b815260040161063d93929190610f23565b6020604051808303816000875af115801561065c573d6000803e3d6000fd5b505050506040513d601f19601f820116820180604052508101906106809190610ef6565b50505050565b6003602052816000526040600020602052806000526040600020600091509150505481565b60016020528060005260406000206000915090508060000154908060010160009054906101000a900473ffffffffffffffffffffffffffffffffffffffff16905082565b6106f7610a23565b73ffffffffffffffffffffffffffffffffffffffff16610715610777565b73ffffffffffffffffffffffffffffffffffffffff161461076b576040517f08c379a000000000000000000000000000000000000000000000000000000000815260040161076290610fa6565b60405180910390fd5b6107756000610a2b565b565b60008060009054906101000a900473ffffffffffffffffffffffffffffffffffffffff16905090565b6107a8610a23565b73ffffffffffffffffffffffffffffffffffffffff166107c6610777565b73ffffffffffffffffffffffffffffffffffffffff161461081c576040517f08c379a000000000000000000000000000000000000000000000000000000000815260040161081390610fa6565b60405180910390fd5b60405180604001604052808381526020018273ffffffffffffffffffffffffffffffffffffffff16815250600160008481526020019081526020016000206000820151816000015560208201518160010160006101000a81548173ffffffffffffffffffffffffffffffffffffffff021916908373ffffffffffffffffffffffffffffffffffffffff16021790555090505060028290806001815401808255809150506001900390600052602060002001600090919091909150555050565b600281815481106108eb57600080fd5b906000526020600020016000915090505481565b610907610a23565b73ffffffffffffffffffffffffffffffffffffffff16610925610777565b73ffffffffffffffffffffffffffffffffffffffff161461097b576040517f08c379a000000000000000000000000000000000000000000000000000000000815260040161097290610fa6565b60405180910390fd5b600073ffffffffffffffffffffffffffffffffffffffff168173ffffffffffffffffffffffffffffffffffffffff1614156109eb576040517f08c379a00000000000000000000000000000000000000000000000000000000081526004016109e290611038565b60405180910390fd5b6109f481610a2b565b50565b60008183610a059190611087565b905092915050565b60008183610a1b91906110bb565b905092915050565b600033905090565b60008060009054906101000a900473ffffffffffffffffffffffffffffffffffffffff169050816000806101000a81548173ffffffffffffffffffffffffffffffffffffffff021916908373ffffffffffffffffffffffffffffffffffffffff1602179055508173ffffffffffffffffffffffffffffffffffffffff168173ffffffffffffffffffffffffffffffffffffffff167f8be0079c531659141344cd1fd0a4f28419497f9722a3daafe3b4186f6b6457e060405160405180910390a35050565b600080fd5b6000819050919050565b610b0781610af4565b8114610b1257600080fd5b50565b600081359050610b2481610afe565b92915050565b6000819050919050565b610b3d81610b2a565b8114610b4857600080fd5b50565b600081359050610b5a81610b34565b92915050565b60008060408385031215610b7757610b76610aef565b5b6000610b8585828601610b15565b9250506020610b9685828601610b4b565b9150509250929050565b600073ffffffffffffffffffffffffffffffffffffffff82169050919050565b6000610bcb82610ba0565b9050919050565b610bdb81610bc0565b8114610be657600080fd5b50565b600081359050610bf881610bd2565b92915050565b60008060408385031215610c1557610c14610aef565b5b6000610c2385828601610be9565b9250506020610c3485828601610b15565b9150509250929050565b610c4781610b2a565b82525050565b6000602082019050610c626000830184610c3e565b92915050565b600060208284031215610c7e57610c7d610aef565b5b6000610c8c84828501610b15565b91505092915050565b610c9e81610af4565b82525050565b610cad81610bc0565b82525050565b6000604082019050610cc86000830185610c95565b610cd56020830184610ca4565b9392505050565b6000602082019050610cf16000830184610ca4565b92915050565b60008060408385031215610d0e57610d0d610aef565b5b6000610d1c85828601610b15565b9250506020610d2d85828601610be9565b9150509250929050565b600060208284031215610d4d57610d4c610aef565b5b6000610d5b84828501610b4b565b91505092915050565b6000602082019050610d796000830184610c95565b92915050565b600060208284031215610d9557610d94610aef565b5b6000610da384828501610be9565b91505092915050565b600082825260208201905092915050565b7f746f6b656e20646f6573206e6f74206578697374000000000000000000000000600082015250565b6000610df3601483610dac565b9150610dfe82610dbd565b602082019050919050565b60006020820190508181036000830152610e2281610de6565b9050919050565b7f496e73756666696369656e742062616c616e63652e0000000000000000000000600082015250565b6000610e5f601583610dac565b9150610e6a82610e29565b602082019050919050565b60006020820190508181036000830152610e8e81610e52565b9050919050565b6000604082019050610eaa6000830185610ca4565b610eb76020830184610c3e565b9392505050565b60008115159050919050565b610ed381610ebe565b8114610ede57600080fd5b50565b600081519050610ef081610eca565b92915050565b600060208284031215610f0c57610f0b610aef565b5b6000610f1a84828501610ee1565b91505092915050565b6000606082019050610f386000830186610ca4565b610f456020830185610ca4565b610f526040830184610c3e565b949350505050565b7f4f776e61626c653a2063616c6c6572206973206e6f7420746865206f776e6572600082015250565b6000610f90602083610dac565b9150610f9b82610f5a565b602082019050919050565b60006020820190508181036000830152610fbf81610f83565b9050919050565b7f4f776e61626c653a206e6577206f776e657220697320746865207a65726f206160008201527f6464726573730000000000000000000000000000000000000000000000000000602082015250565b6000611022602683610dac565b915061102d82610fc6565b604082019050919050565b6000602082019050818103600083015261105181611015565b9050919050565b7f4e487b7100000000000000000000000000000000000000000000000000000000600052601160045260246000fd5b600061109282610b2a565b915061109d83610b2a565b9250828210156110b0576110af611058565b5b828203905092915050565b60006110c682610b2a565b91506110d183610b2a565b9250827fffffffffffffffffffffffffffffffffffffffffffffffffffffffffffffffff0382111561110657611105611058565b5b82820190509291505056fea2646970667358221220ed29247a94e26d1ee87caafafa01467982c6f94714fc2d2065bfbf0571d4786d64736f6c634300080c0033",
  "immutableReferences": {},
  "source": "pragma solidity ^0.8.0;\n\nimport \"../node_modules/@openzeppelin/contracts/utils/math/SafeMath.sol\";\nimport \"../node_modules/@openzeppelin/contracts/token/ERC20/IERC20.sol\";\nimport \"../node_modules/@openzeppelin/contracts/access/Ownable.sol\";\n\ncontract Wallet is Ownable{\n\n    using SafeMath for uint256;\n\n    struct Token {\n        bytes32 ticker;\n        address tokenAddress;\n    }\n\n    mapping(bytes32 => Token) public tokenMapping;\n    bytes32[] public tokenList;\n\n    mapping(address => mapping(bytes32 => uint256)) public balances;\n\n    modifier tokenExist(bytes32 _ticker) {\n        require(tokenMapping[_ticker].tokenAddress != address(0), \"token does not exist\");\n        _;\n    }\n\n    function addToken(bytes32 _ticker, address _tokenAddress) external onlyOwner {\n        // checks\n            // checked by modifier 'onlyOwner'\n        // effects\n            tokenMapping[_ticker] = Token(_ticker, _tokenAddress);\n            tokenList.push(_ticker);\n        // interactions\n    }\n    \n    function deposit(bytes32 _ticker, uint256 _amount) external tokenExist(_ticker) {\n        // checks\n            // checked by modifier 'tokenExist'\n        // effects\n            balances[msg.sender][_ticker] = balances[msg.sender][_ticker].add(_amount);\n        // interactions\n            IERC20(tokenMapping[_ticker].tokenAddress).transferFrom(msg.sender, address(this), _amount);\n    }\n\n    function withdraw(bytes32 _ticker, uint256 _amount) external tokenExist(_ticker) {\n        // checks\n            require(balances[msg.sender][_ticker] >= _amount, \"Insufficient balance.\");\n        // effects\n            balances[msg.sender][_ticker] = balances[msg.sender][_ticker].sub(_amount);\n        // interactions\n            // we need to interact with other token address for the withdraw\n            // we need 2 things to interact :  1) the token interface 2) the token address\n            // if we are building a dex for erc20 token, we can use the openzepplin's IERC20 interface for it\n            IERC20(tokenMapping[_ticker].tokenAddress).transfer(msg.sender, _amount);\n\n    }\n}",
  "sourcePath": "/Users/jackal/Coding/Solidity/dex/contracts/wallet.sol",
  "compiler": {
    "name": "solc",
    "version": "0.8.12+commit.f00d7308.Emscripten.clang"
  },
  "schemaVersion": "3.4.5",
  "updatedAt": "2022-03-07T12:00:26.992Z",
  "networkType": "ethereum",
  "devdoc": {
    "kind": "dev",
    "methods": {
      "owner()": {
        "details": "Returns the address of the current owner."
      },
      "renounceOwnership()": {
        "details": "Leaves the contract without owner. It will not be possible to call `onlyOwner` functions anymore. Can only be called by the current owner. NOTE: Renouncing ownership will leave the contract without an owner, thereby removing any functionality that is only available to the owner."
      },
      "transferOwnership(address)": {
        "details": "Transfers ownership of the contract to a new account (`newOwner`). Can only be called by the current owner."
      }
    },
    "version": 1
  },
  "userdoc": {
    "kind": "user",
    "methods": {},
    "version": 1
  }
}